{
  "contractName": "SimpleStorage",
  "abi": [
    {
      "inputs": [],
      "name": "storedData",
      "outputs": [
        {
          "internalType": "uint256",
          "name": "",
          "type": "uint256"
        }
      ],
      "stateMutability": "view",
      "type": "function",
      "constant": true
    },
    {
      "inputs": [
        {
          "internalType": "uint256",
          "name": "x",
          "type": "uint256"
        }
      ],
      "name": "set",
      "outputs": [],
      "stateMutability": "nonpayable",
      "type": "function"
    },
    {
      "inputs": [],
      "name": "get",
      "outputs": [
        {
          "internalType": "uint256",
          "name": "",
          "type": "uint256"
        }
      ],
      "stateMutability": "view",
      "type": "function",
      "constant": true
    },
    {
      "inputs": [
        {
          "internalType": "uint256",
          "name": "x",
          "type": "uint256"
        }
      ],
      "name": "deposit",
      "outputs": [],
      "stateMutability": "nonpayable",
      "type": "function"
    },
    {
      "inputs": [
        {
          "internalType": "uint256",
          "name": "x",
          "type": "uint256"
        }
      ],
      "name": "withdraw",
      "outputs": [],
      "stateMutability": "nonpayable",
      "type": "function"
    },
    {
      "inputs": [
        {
          "internalType": "address",
          "name": "to",
          "type": "address"
        },
        {
          "internalType": "uint256",
          "name": "x",
          "type": "uint256"
        }
      ],
      "name": "transfer",
      "outputs": [],
      "stateMutability": "nonpayable",
      "type": "function"
    },
    {
      "inputs": [],
      "name": "getBalance",
      "outputs": [
        {
          "internalType": "uint256",
          "name": "",
          "type": "uint256"
        }
      ],
      "stateMutability": "view",
      "type": "function",
      "constant": true
    }
  ],
  "bytecode": "0x608060405234801561001057600080fd5b5061052f806100206000396000f3fe608060405234801561001057600080fd5b506004361061007d5760003560e01c806360fe47b11161005b57806360fe47b1146100da5780636d4ce63c146100f6578063a9059cbb14610114578063b6b55f25146101305761007d565b806312065fe0146100825780632a1afcd9146100a05780632e1a7d4d146100be575b600080fd5b61008a61014c565b60405161009791906102ce565b60405180910390f35b6100a8610155565b6040516100b591906102ce565b60405180910390f35b6100d860048036038101906100d3919061031a565b61015b565b005b6100f460048036038101906100ef919061031a565b6101bb565b005b6100fe6101c5565b60405161010b91906102ce565b60405180910390f35b61012e600480360381019061012991906103a5565b6101ce565b005b61014a6004803603810190610145919061031a565b61029a565b005b60008054905090565b60005481565b8060005410156101a0576040517f08c379a000000000000000000000000000000000000000000000000000000000815260040161019790610442565b60405180910390fd5b806000808282546101b19190610491565b9250508190555050565b8060008190555050565b60008054905090565b806000541015610213576040517f08c379a000000000000000000000000000000000000000000000000000000000815260040161020a90610442565b60405180910390fd5b8173ffffffffffffffffffffffffffffffffffffffff1663b6b55f25826040518263ffffffff1660e01b815260040161024c91906102ce565b600060405180830381600087803b15801561026657600080fd5b505af115801561027a573d6000803e3d6000fd5b505050508060008082825461028f9190610491565b925050819055505050565b806000808282546102ab91906104c5565b9250508190555050565b6000819050919050565b6102c8816102b5565b82525050565b60006020820190506102e360008301846102bf565b92915050565b600080fd5b6102f7816102b5565b811461030257600080fd5b50565b600081359050610314816102ee565b92915050565b6000602082840312156103305761032f6102e9565b5b600061033e84828501610305565b91505092915050565b600073ffffffffffffffffffffffffffffffffffffffff82169050919050565b600061037282610347565b9050919050565b61038281610367565b811461038d57600080fd5b50565b60008135905061039f81610379565b92915050565b600080604083850312156103bc576103bb6102e9565b5b60006103ca85828601610390565b92505060206103db85828601610305565b9150509250929050565b600082825260208201905092915050565b7f496e73756666696369656e742062616c616e6365000000000000000000000000600082015250565b600061042c6014836103e5565b9150610437826103f6565b602082019050919050565b6000602082019050818103600083015261045b8161041f565b9050919050565b7f4e487b7100000000000000000000000000000000000000000000000000000000600052601160045260246000fd5b600061049c826102b5565b91506104a7836102b5565b92508282039050818111156104bf576104be610462565b5b92915050565b60006104d0826102b5565b91506104db836102b5565b92508282019050808211156104f3576104f2610462565b5b9291505056fea26469706673582212208824a79e7a3fe8932f4d0d98f641e8aeb35ffc6192383466d182b25b025fed2164736f6c63430008130033",
  "immutableReferences": {},
  "source": "// SPDX-License-Identifier: MIT\r\npragma solidity ^0.8.0;\r\n\r\ncontract SimpleStorage {\r\n    uint256 public storedData;\r\n\r\n    function set(uint256 x) public {\r\n        storedData = x;\r\n    }\r\n\r\n    function get() public view returns (uint256) {\r\n        return storedData;\r\n    }\r\n\r\n    function deposit(uint256 x) public {\r\n        storedData += x;\r\n    }\r\n\r\n    function withdraw(uint256 x) public {\r\n        require(storedData >= x, \"Insufficient balance\");\r\n        storedData -= x;\r\n    }\r\n\r\n    function transfer(address to, uint256 x) public {\r\n        require(storedData >= x, \"Insufficient balance\");\r\n        SimpleStorage(to).deposit(x);\r\n        storedData -= x;\r\n    }\r\n\r\n    function getBalance() public view returns (uint256) {\r\n        return storedData;\r\n    }\r\n}\r\n",
  "sourcePath": "C:\\Users\\kkpr2\\OneDrive\\Documents\\blockchain\\first\\contracts\\SimpleStorage.sol",
  "compiler": {
    "name": "solc",
    "version": "0.8.19+commit.7dd6d404.Emscripten.clang"
  },
  "schemaVersion": "3.4.16",
  "updatedAt": "2024-06-26T09:52:37.240Z",
  "networkType": "ethereum",
  "devdoc": {
    "kind": "dev",
    "methods": {},
    "version": 1
  },
  "userdoc": {
    "kind": "user",
    "methods": {},
    "version": 1
  }
}